11704978TOLGA          KAYIS          1997342000000000000000
12803949ANNIE          EDISON         1990353000000000000000
14302840TROY           BARNES         1989338000000000000000
15801840MEHMET         AYDIN          1974261000000000000000
19601949ABED           NADIR          1989083000000000000000
